:0800000078C0FECFFDCFFCCF5C
:10000800DAC0FACFF9CFF8CFF7CFF6CFF5CFF4CFE4
:10001800F3CFF2CFF1CFF0CFEFCFEECFEDCF00049B
:100028000E0E1F040000FFFBF1F1E0FBFFFF0011C3
:100038000A040A110000FFEEF5FBF5EEFFFF1018A9
:100048001C1E1C1810001027E80364000A00010099
:1000580000100001100001000000000020202043D3
:10006800687563204D756E67204E676179204B79FE
:10007800204E69656D204375612032204368756E96
:10008800672054612E204368756320456D204C75A8
:100098006F6E2056756920566520566120416D2087
:1000A80041702042656E20416E682E2049204C4FD9
:1000B800564520594F552E202020100048656C6C5D
:1000C8006F0080C0010002006000010004006200AF
:1000D8005E007A0164000100DB01C20006006001D5
:1000E800C4000200DF01CA000000F894EE27ECBB50
:1000F800F1E0FBBFEBBFE5BFF8E1F1BDE1BD8DE08D
:10010800A2E0BB27ED938A95E9F780E094E0A0E6AA
:10011800ED930197E9F7ECECF0E085919591009764
:1001280061F0A591B59105901590BF01F00105907A
:100138000D920197E1F7FB01F0CFEFE5EDBFE4E0A9
:10014800EEBFC0E6D1E04CC066D16BD138F4AFEF5A
:10015800AED0EFB9779BFECF6AD1F7CF70D1A4EFBD
:10016800B1E086D158D15DD138F4A0E0A0D0EFB984
:10017800779BFECF5CD1F7CF62D1A4EFB1E078D105
:100188000895AA937FD1EA81EE0FEE0FEE0FE06497
:100198000E2F10E0183060F40A930395EC81FD816E
:1001A8003196EC83FD833197A491B9D01F5FF2CFCC
:1001B8006CD125960895EA93FA93EFB7EA93F30181
:1001C80031963F01F40131964F01F50131965F01F7
:1001D800F60131966F01E991EFBFF991E991189510
:1001E800E0E0E8BBEFEEE7BBE0E0E5BBEFEFE4BB48
:1001F800E0E0E2BBEFEFE1BBE0E0EFBDEEBDEDBD5F
:10020800ECBDE0E2FEE4F7BDE6BDE0EDF7E0FBBDE6
:10021800EABDF9BDE8BDE0E0E2BDE5B5E360E5BDF6
:10022800E0E0E4BDE3BDE9B7E164E9BFE0E0E6B9D9
:10023800E6BFEDB1EF65EDB9709A87D0A0E1BFD008
:10024800E0E0EA93A1E070D0A0E6B1E0A7D0E6E252
:10025800F0E0FBD0A0E095DFEEE2F0E0F6D0A1E020
:1002680090DFE6E3F0E0F1D0A2E08BDFEEE3F0E030
:10027800ECD0A3E086DFE6E4F0E0E7D0A4E081DF9D
:10028800AAE7B1E008D0E093D901F093DA017894B5
:100298005BDFFECFFFCFBA93AA93A991B991EE275E
:1002A800FF276D91662311F03196FBCF0895AA932D
:1002B800E881EFB9779BFECFEFB1ABC0AA93E88195
:1002C800E07111F0959A01C09598E881E07211F0FB
:1002D800949A01C09498E881E07411F0939A01C04F
:1002E8009398E881E07811F0929A01C0929885E09D
:1002F8008A95F1F7969A8DE08A95F1F796988DE0B0
:100308008A95F1F786C0AA93A881D8DFE881E2959B
:10031800E883A881D3DF85E88A95F1F77AC0AA93A4
:10032800A981F1DF95D00FC0AA93E881F0E0E152EE
:10033800FE4FE081A981AE0FE6DFE981E093E3019A
:10034800E881E093E40122960895A2E086D0ACE02B
:10035800DADFA1E082D0E0E0E093E401E093E3019A
:100368000895AA93A881AA3031F0E091E501A091FF
:10037800E301AE1760F0E0E0EA93A091E401AF5F1B
:10038800A093E401D1DFA881AA3009F442C0E0912A
:10039800E301EF5FE093E3015BD03BC0BA93AA931C
:1003A8001A93A981BA81ED91A983BA831E2FE030EF
:1003B80019F0A12FD6DFF5CF188123960895AA93B7
:1003C8008D9A8C9A8B9A8A9A8E9AB89A8F9A9698BE
:1003D800C0989798E881E093E501E058E093E1013F
:1003E800E881E054E093E201A4E1B0E041D039D0E3
:1003F80038D037D0A0E262DF88EC90E00197F1F7BF
:10040800A8E281DFA4E07FDFA5E87DDFA6E07BDF4F
:100418009CDF21960895E0E0E093DD01E093DE01A2
:100428000895A091DD01B091DE0118970895ADED12
:10043800B1E0ED91FD913196FE93EE930895C29A45
:10044800A2E0B0E015D0C2980895FA93EA9308950F
:10045800C09AA88158DFC098089555DFA3E0B0E09E
:1004680007C0A0E32BDF88EC90E00197F1F708952F
:10047800109639F080ED97E00197F1F7A89511975C
:10048800C9F708951A930A93089519810881089560
:00000001FF
