:0A0000002BC2FECFFDCFFCCFEEC3F4
:10000A00FACFF9CFF8CFF7CFF6CFF5CFF4CFF3CFBA
:10001A00F2CFF1CFF0CFEFCFEECFEDCF000A1F1F17
:10002A000E040000FFFBF1F1E0FBFFFF00110A04E0
:10003A000A110000FFEEF5FBF5EEFFFF10181C1E7B
:10004A001C18100000000000000000000100000160
:10005A0000000300000300000700000700000F0073
:10006A00000F00001F00001F00003F00003F0000BB
:10007A007F00007F0000FF0000FF0001FF0001FF7A
:10008A000003FF0003FF0007FF0007FF000FFF0048
:10009A000FFF001FFF001FFF003FFF003FFF007F11
:1000AA00FF007FFF00FFFF00FFFF01FFFF01FFFFCF
:1000BA0003FFFF03FFFF07FFFF07FFFF0FFFFF0F0E
:1000CA00FFFF1FFFFF1FFFFF3FFFFF3FFFFF7FFFF6
:1000DA00FF7FFFFFFFFFFFFFFFFFFFFFFFFFFFFFA6
:1000EA007FFFFF7FFFFF3FFFFF3FFFFF1FFFFF1F56
:1000FA00FFFF0FFFFF0FFFFF07FFFF07FFFF03FFD2
:10010A00FF03FFFF01FFFF01FFFF00FFFF00FFFFEB
:10011A00007FFF007FFF003FFF003FFF001FFF003F
:10012A001FFF000FFF000FFF0007FF0007FF00037C
:10013A00FF0003FF0001FF0001FF0000FF0000FFB6
:10014A0000007F00007F00003F00003F00001F000A
:10015A00001F00000F00000F00000700000700004A
:10016A00030000030000010000010000000000007D
:10017A00800000000001C00000000003E000000051
:10018A000007F0000000000FF8000000001FFC004C
:10019A000000003FFE000000007FFF00000000FF9B
:1001AA00FF80000001FFFFC0000003FFFFE0000026
:1001BA0007FFFFF000000FFFFFF800001FFFFFFC22
:1001CA0000003FFFFFFE00007FFFFFFF0000FFFF70
:1001DA00FFFF8001FFFFFFFFC003FFFFFFFFE007F4
:1001EA00FFFFFFFFF00FFFFFFFFFF81FFFFFFFFFFB
:1001FA00FC3FFFFFFFFFFE7FFFFFFFFFFFFFFFFF49
:10020A00FFFFFFFFFFFFFFFFFE7FFFFFFFFFFC3F38
:10021A00FFFFFFFFF81FFFFFFFFFF00FFFFFFFFFCA
:10022A00E007FFFFFFFFC003FFFFFFFF8001FFFFA3
:10023A00FFFF0000FFFFFFFE00007FFFFFFC000042
:10024A003FFFFFF800001FFFFFF000000FFFFFE075
:10025A00000007FFFFC0000003FFFF80000001FF4E
:10026A00FF00000000FFFE000000007FFC0000000D
:10027A00003FF8000000001FF0000000000FE0003F
:10028A0000000007C0000000000380000000000119
:10029A00555555555555AAAAAAAAAAAACCCCCCCC2A
:1002AA00CCCC555555555555333333333333E38E0B
:1002BA0038E38E3871E71C71E71C38E38E38E38E19
:1002CA001C71E71C71E78E38E38E38E3C71C71C7CF
:1002DA001C71F0F0F0F0F0F07878787878783C3C9F
:1002EA003C3C3C3C1E1E1E1E1E1E0F0F0F0F0F0F06
:1002FA00878787878787C3C3C3C3C3C3E1E1E1E1B4
:10030A00E1E1FC0FC0FC0FC07E07E07E07E03F037F
:10031A00F03F03F01F81F81F81F80FC0FC0FC0FCEB
:10032A0007E07E07E07E03F03F03F03F81F81F817C
:10033A00F81FC0FC0FC0FC0FE07E07E07E07F03F0D
:10034A0003F03F03F81F81F81F81FF00FF00FF0041
:10035A007F807F807F803FC03FC03FC01FE01FE09B
:10036A001FE00FF00FF00FF007F807F807F803FC8B
:10037A0003FC03FC01FE01FE01FE00FF00FF00FF7B
:10038A00807F807F807FC03FC03FC03FE01FE01F6B
:10039A00E01FF00FF00FF00FF807F807F807FC035B
:1003AA00FC03FC03FE01FE01FE0100000000000048
:1003BA00FFFFFFFFFFFF1027E80364000A000100A8
:1003CA000010000110000100000000002020202A77
:1003DA002A204D657279206368726973746D61733E
:1003EA002054687579205469656E2078696E682092
:1003FA0064657020637561204C69656D2044617580
:10040A00202A2A2020201000581B2C012049204C89
:10041A006F766520596F7520000080C001000200C8
:10042A00D20301000400D4033A008101D60301007B
:10043A00BE0110040200C20112040200C601140423
:10044A000D00600116040200CC0124040000F89497
:10045A00EE27ECBBF1E0FBBFEBBFE5BFF8E1F1BD76
:10046A00E1BD8DE0A2E0BB27ED938A95E9F780E034
:10047A0094E0A0E6ED930197E9F7E6E2F4E08591CE
:10048A009591009761F0A591B59105901590BF01DE
:10049A00F00105900D920197E1F7FB01F0CFEFE52E
:1004AA00EDBFE4E0EEBFC0E6D1E010C2AA931A9312
:1004BA0018E0113070F0E12FE150A981D9D3E17031
:1004CA0011F4C39801C0C39AC59851D3C59A115063
:1004DA00F0CF1881E1C2AA93F5D3E9E1F0E0AE16B4
:1004EA00BF06B8F15090810100E010E043D3329783
:1004FA00E017F1073CF1E091BE01F091BF0131979D
:10050A00E017F107A4F0F801E359FE4F0F01A1E843
:10051A00B1E0A00FB11FEC91D001EC930A93AB812B
:10052A00ACD2ADE6B1E0A00FB11FAC91C7D2D801F1
:10053A00AF57BE4FF801EE57FE4FE081EC930F5FC5
:10054A001F4FD4CF17D33197EF57FE4F5082AA24AB
:10055A00BB24BBD3DFC213D318D3A632E1E0BE0754
:10056A00D8F418D31DD390F421D3E25BFF4F26D3DE
:10057A0008F02DD320FE02C0E1E001C0E0E0E03047
:10058A0011F4C19801C0C19A29D3ECCF2FD3C298D4
:10059A00A4E62ED32FD3E0CF0895F1D2F6D2A63215
:1005AA00E1E0BE07D8F4F6D2FBD290F4FFD2EC58C1
:1005BA00FE4F04D308F00BD320FE02C0E1E001C0D5
:1005CA00E0E0E03011F4C19801C0C19A07D3ECCF42
:1005DA000DD3C298A4E10CD30DD3E0CF0895CFD2A6
:1005EA00D4D21C97D8F4D6D2DBD290F4DFD2E65616
:1005FA00FD4FE4D208F0EBD220FE02C0E1E001C0D8
:10060A00E0E0E03011F4C19801C0C19AE7D2ECCF22
:10061A00EDD2C298A8ECECD2EDD2E2CF0895AFD2D7
:10062A00B4D25297D8F4B6D2BBD290F4BFD2EA551C
:10063A00FD4FC4D208F0CBD220FE02C0E1E001C0D7
:10064A00E0E0E03011F4C19801C0C19AC7D2ECCF02
:10065A00CDD2C298A8ECCCD2CDD2E2CF08958FD217
:10066A0094D29497D8F496D29BD290F49FD2E8541D
:10067A00FD4FA4D208F0ABD220FE02C0E1E001C0D7
:10068A00E0E0E03011F4C19801C0C19AA7D2ECCFE2
:10069A00ADD2C298A6E9ACD2ADD2E2CF08956FD25C
:1006AA0074D2D097D8F476D27BD290F47FD2E45227
:1006BA00FD4F84D208F08BD220FE02C0E1E001C0D7
:1006CA00E0E0E03011F4C19801C0C19A87D2ECCFC2
:1006DA008DD2C298A4E68CD28DD2E2CF08954FD2A1
:1006EA0054D2A834E0E0BE07D8F454D259D290F4D8
:1006FA005DD2E45FFC4F62D208F069D220FE02C0EC
:10070A00E1E001C0E0E0E03011F4C19801C0C19A13
:10071A0065D2ECCF6BD2C298A2E36AD26BD2E0CF99
:10072A0008952DD232D2A036E0E0BE07D8F432D2F4
:10073A0037D290F43BD2EC5AFC4F40D208F047D261
:10074A0020FE02C0E1E001C0E0E0E03011F4C1980F
:10075A0001C0C19A43D2ECCF49D2C298AEE148D285
:10076A0049D2E0CF08950BD210D21C97E0F412D2EE
:10077A0017D290F41BD2EC54FC4F20D208F027D2A7
:10078A0020FE02C0E1E001C0E0E0E03011F4C198CF
:10079A0001C0C19A23D2ECCF29D2C298ACE2B1E00F
:1007AA0059D228D2E1CF0895AA938CD2EA81EE0FCA
:1007BA00EE0FEE0FE0640E2F10E0183060F40A938B
:1007CA000395EC81FD813196EC83FD833197A491E9
:1007DA004FD11F5FF2CF79D2259608950A921A92C5
:1007EA00AA93BA93EA93FA93EFB7EA93F30131968D
:1007FA003F01F40131964F01F50131965F01F6018F
:10080A0031966F01A0ECB1E0ED91FD913196FE9326
:10081A00EE93FAD1FED130F0E0E0E093C401E09328
:10082A00C5014BC0F1D1EE0FFF1FF3D120F0E1E07B
:10083A00F0E0F6D142C0E8D1A3E0B0E0F6D120F072
:10084A00E2E0F0E0EDD139C0DFD11CD2E2D120F0F4
:10085A00E3E0F0E0E5D131C0D7D1A5E0B0E0E5D1E1
:10086A0020F0E4E0F0E0DCD128C0CED1A6E0B0E090
:10087A00DCD120F0E5E0F0E0D3D11FC0C5D1A7E07C
:10088A00B0E0D3D120F0E6E0F0E0CAD116C0BCD186
:10089A00F7D1BFD120F0E7E0F0E0C2D10EC0B4D169
:1008AA00A9E0B0E0C2D120F0E8E0F0E0B9D105C09B
:1008BA00E0E0E093C001E093C101E991EFBFF99153
:1008CA00E991B991A991199009901895E0E0E8BBCE
:1008DA00EFEEE7BBE0E0E5BBEFEFE4BBE0E0E2BB55
:1008EA00EFEFE1BBE0E0E2BDE5B5E460E5BDE0E0E5
:1008FA00E4BDE3BDE9B7E164E9BFE0E0E6B9E6BF1C
:10090A00CDD0A0E109D1E0E0EA93A1E0B6D08FD141
:10091A008ED1A0E6B1E0EFD08AD189D1E6E2F0E04B
:10092A0088D1A0E041DFEEE2F0E083D1A1E03CDF34
:10093A00E6E3F0E07ED1A2E037DFEEE3F0E079D142
:10094A00A3E032DFE6E4F0E074D1A4E02DDFA1E811
:10095A00B1E051D0E093BC01F093BD0178946CD121
:10096A006BD16AD169D168D167D166D165D1C29894
:10097A00FED0C29AAAE03CD1E8E5FBE1E093C201CD
:10098A00F093C301E091C401F091C501309711F4CD
:10099A00EADE2FC0E130A0E0FA0711F4FEDD29C03B
:1009AA00E230A0E0FA0711F41ADE23C0E330A0E037
:1009BA00FA0711F434DE1DC0E430A0E0FA0711F49E
:1009CA004EDE17C0E530A0E0FA0711F468DE11C068
:1009DA00E630A0E0FA0711F482DE0BC0E730A0E0AF
:1009EA00FA0711F49EDE05C0E830A0E0FA0709F420
:1009FA00B2DDC2CFFFCFBA93AA93A991B991EE27DC
:100A0A00FF276D91662311F03196FBCF0895AA93C3
:100A1A00E881E07111F0959A01C09598E881E07239
:100A2A0011F0949A01C09498E881E07411F0939AB5
:100A3A0001C09398E881E07811F0929A01C09298E7
:100A4A0085E08A95F1F7969A8DE08A95F1F796985E
:100A5A008DE08A95F1F789C0AA93A881D8DFE88149
:100A6A00E295E883A881D3DF85E88A95F1F77DC00E
:100A7A00AA93A981F1DFE2D00FC0AA93E881F0E03E
:100A8A00E453FE4FE081A981AE0FE6DFE981E093EE
:100A9A00D001E881E093D10122960895A2E0DCDF3B
:100AAA00A3E0A6D0ACE0D8DFA1E0D6DFA3E0A0D0D7
:100ABA00E0E0E093D101E093D0010895AA93A881E0
:100ACA00AA3031F0E091D201A091D001AE1760F0C6
:100ADA00E0E0EA93A091D101AF5FA093D101CDDF0D
:100AEA00A881AA3009F441C0E091D001EF5FE093F8
:100AFA00D001A4D03AC0BA93AA931A93A981BA8111
:100B0A00ED91A983BA831E2FE03019F0A12FD6DF09
:100B1A00F5CF188123960895AA938D9A8C9A8B9A69
:100B2A008A9A8E9AB89A8F9A9698C0989798E881D6
:100B3A00E093D201E058E093CE01E881E054E093DB
:100B4A00CF01A4E155D07FD07ED07DD0A0E25FDF77
:100B5A0088EC90E00197F1F7A8E27EDFA4E07CDF61
:100B6A00A5E87ADFA6E078DF99DF21960895A1E06B
:100B7A00B0E070C0E091BC01F091BD010895E0E0E1
:100B8A00E093C801E093C9010895A091C801B0910A
:100B9A00C9010895E0E0E093CA01E093CB0108950A
:100BAA00A091CA01B091CB0116970895E091CA01AC
:100BBA00F091CB01EADFEA0FFB1F0895A49176DCDE
:100BCA00E091C601F091C701CE16DF060895A0E0B4
:100BDA0082DCCC24DD24E1E02E260895AAECB1E0E3
:100BEA00ED91FD913196FE93EE930895C29ABFCF8F
:100BFA00B0E030C0E091C801F091C9013696E093A7
:100C0A00C801F093C9010895E091C201F091C301AE
:100C1A000895A091C001B091C101EA17FB07089598
:100C2A00E093C401F093C501089539D0F2CFA0E052
:100C3A0045CFFA93EA930895A0E038CCC09AA881E8
:100C4A000BDFC0980895A0E3E2DE88EC90E00197FC
:100C5A00F1F70895109639F080ED97E00197F1F7D2
:100C6A00A8951197C9F70895F195E195F04008956F
:100C7A00EE230E2EEA2F19F0E6950A94E9F7089565
:100C8A00EE0FFF1FEE0FFF1FEE0FFF1F0895FA9FD3
:100C9A00F02DEB9FF00DEA9FE02DF10D089504D0A1
:100CAA00F6DF0EF4E1DF0895E894F7FF02C0DCDF17
:100CBA006894B7FF06C0A095B095119600F8039402
:100CCA0000FA08951A930A930895198108810895DC
:00000001FF
